:020000040000fa
:080000000002040000000000f2
:020000040000fa
:04000800520500009d
:020000040000fa
:04000c00d00400001c
:020000040000fa
:0400100012050000d5
:020000040000fa
:04001400f0040000f4
:020000040000fa
:0400180032050000ad
:020000040000fa
:04001c005205000089
:020000040000fa
:040020005205000085
:020000040000fa
:040024005205000081
:020000040000fa
:04002800520500007d
:020000040000fa
:04002c005205000079
:020000040000fa
:040030005205000075
:020000040000fa
:04003400cc020000fa
:020000040000fa
:04003800520500006d
:020000040000fa
:04003c005205000069
:020000040000fa
:040040005205000065
:020000040000fa
:040044005205000061
:020000040000fa
:04004800520500005d
:020000040000fa
:04004c005205000059
:020000040000fa
:040050005205000055
:020000040000fa
:040054005205000051
:020000040000fa
:04005800520500004d
:020000040000fa
:04005c005205000049
:020000040000fa
:040060005205000045
:020000040000fa
:040064005205000041
:020000040000fa
:04006800520500003d
:020000040000fa
:04006c005205000039
:020000040000fa
:040070005205000035
:020000040000fa
:040074005205000031
:020000040000fa
:04007800520500002d
:020000040000fa
:04007c005205000029
:020000040000fa
:040080005205000025
:020000040000fa
:040084005205000021
:020000040000fa
:04008800520500001d
:020000040000fa
:04008c005205000019
:020000040000fa
:040090005205000015
:020000040000fa
:040094005205000011
:020000040000fa
:04009800520500000d
:020000040000fa
:04009c005205000009
:020000040000fa
:0400a0005205000005
:020000040000fa
:0400a4005205000001
:020000040000fa
:0400a80052050000fd
:020000040000fa
:0400ac0052050000f9
:020000040000fa
:0400b00052050000f5
:020000040000fa
:0400b40052050000f1
:020000040000fa
:0400b80052050000ed
:020000040000fa
:0400bc0052050000e9
:020000040000fa
:0400c00052050000e5
:020000040000fa
:0400c40052050000e1
:020000040000fa
:0400c80052050000dd
:020000040000fa
:0400cc0052050000d9
:020000040000fa
:0400d00052050000d5
:020000040000fa
:0400d40052050000d1
:020000040000fa
:0400d80052050000cd
:020000040000fa
:0400dc0052050000c9
:020000040000fa
:0400e00052050000c5
:020000040000fa
:0400e40052050000c1
:020000040000fa
:0400e80052050000bd
:020000040000fa
:0400ec0052050000b9
:020000040000fa
:0400f00052050000b5
:020000040000fa
:0400f40052050000b1
:020000040000fa
:0400f80052050000ad
:020000040000fa
:0400fc0052050000a9
:020000040000fa
:0401000052050000a4
:020000040000fa
:0401040052050000a0
:020000040000fa
:04010800520500009c
:020000040000fa
:04010c005205000098
:020000040000fa
:040110005205000094
:020000040000fa
:040114005205000090
:020000040000fa
:04011800520500008c
:020000040000fa
:04011c005205000088
:020000040000fa
:040120005205000084
:020000040000fa
:040124005205000080
:020000040000fa
:04012800520500007c
:020000040000fa
:04012c005205000078
:020000040000fa
:040130005205000074
:020000040000fa
:040134005205000070
:020000040000fa
:04013800520500006c
:020000040000fa
:04013c005205000068
:020000040000fa
:040140005205000064
:020000040000fa
:040144005205000060
:020000040000fa
:04014800520500005c
:020000040000fa
:04020800520500009b
:020000040000fa
:04020c00d00400001a
:020000040000fa
:0402100012050000d3
:020000040000fa
:04021400f0040000f2
:020000040000fa
:0402180032050000ab
:020000040000fa
:04021c005205000087
:020000040000fa
:040220005205000083
:020000040000fa
:04022400520500007f
:020000040000fa
:04022800520500007b
:020000040000fa
:04022c005205000077
:020000040000fa
:040230005205000073
:020000040000fa
:04023400cc020000f8
:020000040000fa
:04023800520500006b
:020000040000fa
:04023c005205000067
:020000040000fa
:040240005205000063
:020000040000fa
:04024400520500005f
:020000040000fa
:04024800520500005b
:020000040000fa
:04024c005205000057
:020000040000fa
:040250005205000053
:020000040000fa
:04025400520500004f
:020000040000fa
:04025800520500004b
:020000040000fa
:04025c005205000047
:020000040000fa
:040260005205000043
:020000040000fa
:04026400520500003f
:020000040000fa
:04026800520500003b
:020000040000fa
:04026c005205000037
:020000040000fa
:040270005205000033
:020000040000fa
:04027400520500002f
:020000040000fa
:04027800520500002b
:020000040000fa
:04027c005205000027
:020000040000fa
:040280005205000023
:020000040000fa
:04028400520500001f
:020000040000fa
:04028800520500001b
:020000040000fa
:04028c005205000017
:020000040000fa
:040290005205000013
:020000040000fa
:04029400520500000f
:020000040000fa
:04029800520500000b
:020000040000fa
:04029c005205000007
:020000040000fa
:0402a0005205000003
:020000040000fa
:0402a40052050000ff
:020000040000fa
:0402a80052050000fb
:020000040000fa
:0402ac0052050000f7
:020000040000fa
:0402b00052050000f3
:020000040000fa
:0402b40052050000ef
:020000040000fa
:0402b80052050000eb
:020000040000fa
:0402bc0052050000e7
:020000040000fa
:0402c00052050000e3
:020000040000fa
:0402c40052050000df
:020000040000fa
:0402c80052050000db
:020000040000fa
:0402cc0052050000d7
:020000040000fa
:0402d00052050000d3
:020000040000fa
:0402d40052050000cf
:020000040000fa
:0402d80052050000cb
:020000040000fa
:0402dc0052050000c7
:020000040000fa
:0402e00052050000c3
:020000040000fa
:0402e40052050000bf
:020000040000fa
:0402e80052050000bb
:020000040000fa
:0402ec0052050000b7
:020000040000fa
:0402f00052050000b3
:020000040000fa
:0402f40052050000af
:020000040000fa
:0402f80052050000ab
:020000040000fa
:0402fc0052050000a7
:020000040000fa
:0403000052050000a2
:020000040000fa
:04030400520500009e
:020000040000fa
:04030800520500009a
:020000040000fa
:04030c005205000096
:020000040000fa
:040310005205000092
:020000040000fa
:04031400520500008e
:020000040000fa
:04031800520500008a
:020000040000fa
:04031c005205000086
:020000040000fa
:040320005205000082
:020000040000fa
:04032400520500007e
:020000040000fa
:04032800520500007a
:020000040000fa
:04032c005205000076
:020000040000fa
:040330005205000072
:020000040000fa
:04033400520500006e
:020000040000fa
:04033800520500006a
:020000040000fa
:04033c005205000066
:020000040000fa
:040340005205000062
:020000040000fa
:04034400520500005e
:020000040000fa
:04034800520500005a
:020000040000fa
:100400002f8920000e7f22000e01880000000000ce
:10041000000020000000e000020032000001200087
:100420002002880014000700bb0107000000e00064
:1004300003003a00c0ec2000010020000200370059
:100440000000200001002000810f70000100320038
:1004500014000700000020000000e000020032004d
:1004600000000200000000007e0f020000000000fb
:100470000040da000000fe004440a9000000200017
:100480000000e0000300320000002000a00188000e
:100490004440a800000006008a1f78008b1f7800e7
:1004a0000000060091018800800478000000eb0045
:1004b0001a003700e284440032a0b4009905ba0063
:1004c000e284440032a0b4009906ba00e2844400f9
:1004d00032a0b4000006eb00476fde00fd07b2005b
:1004e000636ce10003003a00ebff07000000eb0043
:1004f0000a003700606ce10004003a00005deb0088
:100500008b05e900fdff3e00040037006168e10053
:10051000010032000086eb000b00070019c7ba008b
:100520001905ba000e04e00003003a000a00e000da
:10053000e0ff3a0000000600fe07b2009e018800be
:100540008a047800f5ff3700395dba008b05e900b1
:100550000c003200295dba008b05e900080032006a
:100560000c00e00003003a00e284440032a0b40032
:10057000f5ff370019ddba008b05e900faff3a00f4
:100580008904e800e184440032a0b40000000600c1
:1005900000000000000000003600f800809fbe0050
:1005a000829fbe00849fbe00869fbe00889fbe00c3
:1005b0005000fa00001880008000eb007c0107006a
:1005c000a2622a0083e923007e02070020408800ff
:1005d00031408800101880008000eb007401070093
:1005e000d220230083d42300760207000001be003e
:1005f00000002000811c24008401070001f0a100fc
:100600000040880011408800c00320000e00400018
:100610001000be00020420000e0141000089be004f
:10062000c00220000e0040001000be0002032000a7
:100630000e0141000089be00800220000e00400033
:100640001000be00c20220000e0141000089be0061
:1006500094408000a5408000004080001140800050
:100660000001be000400be006801070082022000f5
:100670000e0141000089be00800220000e004000f3
:100680001000be00b2422a00c3cf23004d02070073
:100690000004be00c00220000e0040001000be009a
:1006a00002fc2c0083cb2300460207000001be00a1
:1006b0000800be00550107000004be000003200032
:1006c0000e0040001000be006011b8003d0207009f
:1006d0000001be000800be00550107000002be0078
:1006e000000420000e0040001000be000001be000b
:1006f0000400be004e010700c20320000e014100ad
:100700000089be00c00320000e0040001000be00a3
:1007100018c0b300d2cc2c00c3f4230001010700a1
:100720000000e00001003d000044eb000804e00090
:1007300006003200d0cc2c00c1f42300c2032000fc
:100740000e0141000089be0016003700c0032000e2
:100750000e0040001000be0018c0b3006011b800c9
:10076000ee0007000000e000010034000044eb0050
:100770000804e000050032006000b800c203200059
:100780000e0141000089be0006003700c0032000b2
:100790000e0040001000be00c20320000e01410008
:1007a0000089be00c00320000e0040001000be0003
:1007b00002002000f331240002020700db000700e2
:1007c00000007800000c8800604080000000e80015
:1007d0006040880060408000f40f50005a003a00ea
:1007e0000c28ef00740047001000be00780147009d
:1007f0000089be00640047001000be006801470089
:100800000089be001e00be00640147000089be00d2
:10081000744080008540800020408000314080008e
:100820000001be000400be00f8000700008fbe00fb
:100830001e00be0092aa260023d02300e10107007b
:100840000004be00640047001000be0002fc2c0043
:1008500083cb2300db0107000001be000800be00bf
:10086000ea0007000004be00680047001000be0058
:100870006011b800d30107000001be000800be00ef
:10088000eb0007000002be00780047001000be0029
:100890000001be000400be00e5000700740147002f
:1008a0000089be00740047001000be0018c0b300ed
:1008b0000200200003f823009a0007000000e00077
:1008c00001003c000044eb000804e0000500320099
:1008d0000000200001f82300740147000089be00d9
:1008e00012003700740047001000be0018c0b300ab
:1008f0006011b800890007000000e0000100350029
:100900000044eb000804e000040032006000b8007e
:10091000740147000089be000400370074004700de
:100920001000be00740147000089be00740047003b
:100930001000be000200200003142400a1010700e3
:1009400090408800a1408800c04080000000e00086
:1009500002003200c040800000000100f08820004a
:10096000104078008040e800f088200001487800be
:10097000e088200011c0b300014878008460a9001d
:100980000080fa004f04be004f03be004f02be00bd
:100990004f01be004f00be003600f90000400600c7
:1009a0003600f800809fbe00829fbe00849fbe007c
:1009b000869fbe000000fa008020a9000000eb0026
:1009c0002f0507000080fa004f03be004f02be0053
:1009d0004f01be004f00be003600f9000040060087
:1009e0003600f800809fbe00829fbe00849fbe003c
:1009f000869fbe000000fa00260507008040a9007f
:100a0000100020001e0507000080fa004f03be0002
:100a10004f02be004f01be004f00be003600f9007d
:100a2000004006003600f800809fbe00829fbe0096
:100a3000849fbe00869fbe000000fa008060a9006f
:100a4000200020000e0507000080fa004f03be00c2
:100a50004f02be004f01be004f00be003600f9003d
:100a6000004006003600f800809fbe00829fbe0056
:100a7000849fbe00869fbe000000fa008080a9000f
:100a800030002000fe0407000080fa004f03be0083
:100a90004f02be004f01be004f00be003600f900fd
:100aa000004006000040da000000fe000800fa00e6
:100ab0008e81e80080097800640047000108780012
:100ac000660047000208780066004700100f7800b3
:100ad0000a003700640047001000780010407800da
:100ae000e4004700910078000101e800e4004700bd
:100af00082087800c60207001e0fe9001e00780079
:100b00000000e000f3ff3a006600470010007800a4
:100b10000080fa000000060000000500140020001c
:100b20002a023700f4ff2f00280237000001be0020
:100b3000210007000470a70003f0a1006509b100bf
:100b4000160032000d0035006828e100060035006f
:100b5000f0ff2f00f1ff27000300e00013003b002f
:100b600001002800000005000000400081804800ce
:100b70008502e900fcff3a0008003700f88f4200c8
:100b800002003c008000eb00000005008100d10065
:100b90000080d3008502e800fcff3a000300e0007b
:100ba00002003b0060001000e0801800000006001a
:100bb0006011b80020023700c70ade00f107b2005a
:100bc000f50fb20008003200e1cf4200020032000f
:100bd0000170a00024000500810f700001003200a8
:100be0000408050044000500810f700002003a006f
:100bf000140005008502e9000000400081c04800a3
:100c0000fcff3b000170a0002400050007f827004e
:100c1000078361000638e10004003a00f70720006e
:100c2000878361008703710001003a0003f0a2008e
:100c3000889fbe008a9fbe008c9fbe00470ade00d0
:100c40000480a100c71ade000580a100070028006b
:100c50000785600087856100f70f20000720e1000d
:100c60009e0032000728e1009c0032000106780057
:100c70000400e000b4003200f70720008780600025
:100c80000170a0000500e000c0003200f70720005e
:100c9000878161000370a000050652000f003a0032
:100ca0000b50e1000b0032000308e10002003a00a3
:100cb0000200e1007e0032000204500083845800ec
:100cc000040031000001fd008101fd008402fd00ef
:100cd0008a05fd006044b800210037000520e100ce
:100ce00005003d000001fd008101fd008402fd00c2
:100cf0008a05fd00050652007a60e1000500350016
:100d00000170a1004722dd00848070008a8070009d
:100d1000630037006044b800ef02660007ff2f0051
:100d2000070666000500e00006003400f0831200ac
:100d30008714dd000511de00071bdd0006017100d0
:100d40008519de007060e1000500350009047800b7
:100d500082047800030178008001eb0070065600e1
:100d60000b50e10003003a0002004000838048007d
:100d70000400370060041400e0841c0002005800e6
:100d8000838058000188a300060032008100d10052
:100d90000080d3008984d3000884d3000402e800d3
:100da000270037000178a30025003a000100e00089
:100db000030032008186cf00698656000a003700a2
:100dc0008c0020000000e00004003a0009007800d8
:100dd000880478000004eb00700252008086cf0087
:100de0000d0646000c06e9007060e10006003500c3
:100df0008000780009007800880478000004eb0087
:100e000070065600700252000c00e0000c00340026
:100e10008c08dd00f00316000703de0086807000fa
:100e20000c00dd00074bde00060070008c4cdd007e
:100e30000743de00868474000c44dd000c0252007f
:100e40006120e100200035006101600007002800fa
:100e500087816400f7ff270087836400070374001d
:100e60000300e00006003200820373000400320039
:100e70000000e800e08048000188a3000e003a006e
:100e8000f70f20000720e1004a003d000170a1009b
:100e90004722dd00810072008a8070000000be00e1
:100ea0004f06be004f05be004f04be000000060006
:100eb0006000b800faff37008100d1000080d30045
:100ec0000402e800eeff3700040178008901740095
:100ed000c20007008a807000f1ff37001801070088
:100ee000070278000001fd008101fd0014010700e8
:100ef00087027800850372000778a300040032009f
:100f00000001fd008101fd0027010700e4ff37001b
:100f1000850362000768a300080032000b50e1005f
:100f200003003200f0ff2f00f1ff2700dcff370045
:100f30000001fd008101fd00d9ff37000468a30016
:100f4000d7ff3200faff3700f8ff270088836000e0
:100f50000b003a000000e00009003a00830364003f
:100f600082837300020032000200be00ccff370013
:100f70000b50e100ceff3a000200be00c8ff370070
:100f800014002000810064003eff3700f8ff2700b6
:100f90008883610004003a000200e00002003a0089
:100fa0008c007800beff370015002000830164002c
:100fb00039ff370001f8270000002000810075008c
:100fc000b7ff3700038368000700280007036300aa
:100fd000470ade000480a100c71ade000580a100d8
:100fe000f70f20000720e100420032000728e1004f
:100ff00040003200889fbe008a9fbe008c1f780090
:10100000f107b200f307b2000400e0006400320010
:101010000170a0000500e000680032000370a0002d
:1010200085054200eb07b1000204b8000302b800d6
:101030008484440060854a00020ab8008484440025
:101040000a854a00030ab80004054500040033007d
:101050000804d0008984d2000a85d2008b05e900fb
:101060006158e1003d0035000210200009016100d7
:101070000308200089816100f7072000878364004e
:1010800008867300c84cde00c853dd0087847400f6
:101090004855de000300e0000600320082037600bf
:1010a000040032008904e80060054d000a88a300ae
:1010b0000c003a00f70f20000758e10044003d0003
:1010c0000a70a100c75ddd000a8575008a00730003
:1010d000090078004f0678004f05be004f04be009f
:1010e000000006000a05d1008984d3008b05e800c2
:1010f000f0ff3700881f7800060478009000070092
:10110000070278000001fd008101fd008c0007004e
:1011100087027800850372000778a300050032007b
:101120000001fd008101fd009f0007004f047800d1
:1011300000000600850372000748a3000300320088
:10114000f0ff2f00f1ff2700f8ff3700000020001c
:1011500001f8270088807000f4ff370088017800cc
:101160004848dd00808171004848de00c850dd003d
:1011700001007000c850de00060478000b01780002
:101180001600070088807000d2ff37000500e000dd
:1011900005003200170020003a0007009dff3700cd
:1011a00081037000f9ff3a00860078004f0678004e
:1011b0004f05be004f04be00000005008303710010
:1011c000f9ff3200270020002e00070094ff3700af
:1011d00001f8270086807000f4ff37000100e0006e
:1011e00026003200610111007810e10023003c006c
:1011f0006022b8007010e100040035008002780021
:10120000010078008000eb00700151000200e00056
:101210000900340070031100062add00822ade0076
:101220008603dd00878272000200de00860bdd008f
:10123000070070008208de0084817100f4ff27003f
:1012400004826200848171000400280084826200ac
:101250006102600005f0a600000006000482710033
:10126000070032000000e800e080480000000600af
:101270000002be006000b800efff37006000b80059
:1012800000000600889fbe000004eb006138e1000a
:1012900016003a000100e00008003a00c800de0035
:1012a0004800dd00880020000100e00003003a0053
:1012b000c800de004800dd00680444008184cf00df
:1012c000e9845400060034008908dd00f08314002e
:1012d0008703de00878070000900dd0009044400f8
:1012e000610214004f04be00000006000300e0008d
:1012f00008003a00c811de004811dd008800200017
:101300000300e00003003a00c811de004811dd00d0
:10131000680444008384cf00e9845400060034004c
:101320008919dd00f08314008713de0087817100c6
:101330000911dd0009044400e1021400e9ff37004f
:101340002700200001f0a70017002000470bde0057
:10135000f60fb200040032000643e8000a00320033
:101360004702b3000000060001037800f607b20050
:101370000603700002003a000703b30000000600f5
:101380008702b3000000060001037800f607b200f0
:1013900006037000020032000770a0000000060083
:1013a0000760a000000006000478a30004003200db
:1013b0000578a300030032000168a30001003a0091
:1013c0000200be000160a00000000600889fbe0071
:1013d0008a9fbe00841f78006c0007004f007800d1
:1013e00011003300f0ff2f00838f6c0006003b00dc
:1013f000040565000a00a7000800370009f0a600f0
:101400001000200008003700820f5400838f5c001a
:10141000030039001000200001003e000000200001
:1014200009f0a7000000ea004f05be004f04be000f
:101430000000e00000000600889fbe008a9fbe00fa
:1014400000827000040271000482710026003200e4
:101450000004be000200be006011b8006b0920004d
:10146000950220000182cf000a0039000541b10039
:101470000082cf00070039000541b1000982cf008a
:10148000040039000541b1000882cf000100390095
:101490000541b10005425200120032000a003b0033
:1014a00082817100610164008100d1000080d3005d
:1014b0008984d3000884d3008b05e8000442e80047
:1014c000f7ff3a00070037000804440089844c0005
:1014d00000004800818048008b05e9000442e900d3
:1014e000f9ff3a00030007004f05be004f04be009d
:1014f0000000060081002000618055000b003d00c7
:101500000b00200061fe2f000100e1001d003400ef
:1015100082817100610164008904d1000884d300d4
:101520000000e800faff3a0071002000610064004a
:1015300003007000020060000900320061044400f2
:10154000e0844c000988a500050032008b05e80006
:101550006808e10002003a008904d1000884d30041
:10156000f20f20000258e10005003d00c75ddd00dc
:10157000f907b200898075000800780000000600b5
:101580000bf827008b007800000005000004be0067
:1015900089fd07000003be000405be000200be0076
:0c15a00085fd0700844f75000000060068
:020000040000fa
:1015ac000000fa0080002000001188002222ef00c9
:1015bc00300020004011880021e2a8002342a8003e
:1015cc000080fa00000006000000fa000000000095
:1015dc0010118000610060000000e000fcff320090
:1015ec0010118000620060000000e0000100320079
:1015fc002222a90030118000004078000080fa00ff
:10160c00000006000200fa00004f78000000000005
:10161c001111800000202000008060000000e0001c
:10162c00fbff3a001e80fb00201188000080fa00ae
:10163c00000006000000fa00101180000040780045
:10164c00614060000080fb0000f0a7000000ea0091
:10165c000000ea004f00de00004078000080fa0035
:10166c00000006000000fa0011118000001020009c
:10167c00008060000000e0000700320011118000c3
:10168c0000402000008060000000e00002003200fa
:10169c0010002000010037000000eb000040780033
:1016ac000080fa00000006000000fa001011800013
:1016bc004800de00614060000080fb0000f0a700e5
:1016cc000000ea000000ea004f00de000040780055
:1016dc000080fa00000006000000fa0010118000e3
:1016ec000080fa00000006000000fa00d1ff07009d
:1016fc000080fa00000006000000fa00d9ff070085
:10170c000080fa00000006000000fa00c9ff070084
:10171c000080fa00000006000000fa00e2ff07005b
:10172c000080fa00000006000000fa00400e2800bd
:10173c0000198800804020001019880000f0290052
:10174c00201988002823ef00300020008019880021
:10175c00101980004200de006f4060001ce8b700ea
:10176c000080fa00000006000000fa002023a80008
:10177c000080fa00000006000000fa002023a900f7
:10178c000080fa00000006000600fa00e4004700a2
:10179c0080087800013020000e80e80001087800f5
:1017ac000000eb00000f78000f0037001e007800df
:1017bc0000004000e40047009100780000804000e9
:1017cc008e80e80091007800910078000108780084
:1017dc000e80e800100078008080e8000e80e800a1
:1017ec00010878001e0fe8001cc8bf000080fb0039
:1017fc009e0f5000edff3d001e0078000080fa00a7
:10180c00000006000000fa00001880000080fa00ba
:10181c00000006000000fa0000198000004078006b
:10182c00614060000080fb0000f0a7000000ea00af
:10183c000000ea004f00de00004078000080fa0053
:10184c00000006000200fa00000f78009e007800ed
:10185c00411988000080fa00000006000200fa001e
:10186c00000f78001e007800f6ff0700beff07008f
:10187c00c1ff070000000000e6ff07000004a20003
:10188c000004e000fcff3a00deff07000080fa00d5
:10189c00000006000000fa0085a0a9000080fa00f4
:1018ac00000006000000fa000021ef00f08120008b
:1018bc00100888000000280020088800c040800024
:1018cc000000e00002003a0000cb200024000700da
:1018dc008460a9009460a800e08820008040eb00a0
:1018ec00014878000080fa00000006000200fa00af
:1018fc00000f78009e00780011088800e088200016
:10190c008040eb00014878000080fa0000000600df
:10191c000000fa00100880000080fa0000000600a9
:10192c000200fa00000f78009e0078000108880081
:10193c00e08820008040eb00014878000080fa002d
:10194c00000006000000fa00000880000080fa0089
:10195c00000006000000fa000080fa0000000600fb
:10196c000200fa00000f78009460a9009e00780035
:10197c00c14088009460a8000080fa0000000600b6
:10198c000000fa00e08820008040eb00014878005d
:10199c009460a80005e1a8000080fa000000060091
:1019ac000000fa0005e1a9009460a9000080fa008b
:1019bc00000006000200fa00e0882000104f7800ba
:1019cc001e4078000004e00003003200e088200094
:1019dc008040eb00014878001e4078000080fa003f
:1019ec00000006000000fa00f0882000104078008b
:1019fc000080fb000080fa00000006000000fa00e6
:101a0c00f08820008040eb00014878000080fa004c
:101a1c00000006000000fa008021ef008221ef0098
:101a2c0060002000200c8800200c80000040780012
:101a3c00674060000080fb00b04088000080fa0026
:101a4c00000006000000fa000080fa00000006000a
:101a5c000000fa0020048000640060000000e00038
:101a6c0002003200f7ff07008440a9000080fa0052
:101a7c00000006000000fa00b04080000040780032
:101a8c00674060000080fb0067006000220c800053
:101a9c0081ff2f008100610001007000200c880084
:101aac000080fa00000006000000fa00210c800003
:101abc0080ff2f0000806000200c88000080fa005e
:101acc00000006000200fa00000f78009e0078006b
:101adc00010c88000080fa00000006000200fa00e9
:101aec00000f78009e007800110c88000080fa002e
:101afc00000006000000fa00200480004200de0016
:101b0c00614060000080fb0000f0a7000000ea00cc
:101b1c000000ea004f00de00004078000080fa0070
:101b2c00000006000400fa008e80e80080087800af
:101b3c000e80e800100078000000e0000a003a0077
:101b4c00200c80004400de00614060000080fb003f
:101b5c0000f0a7000000ea000000ea004f00de00e1
:101b6c00004f780001003700000000001e40780094
:101b7c000080fa00000006000000fa000621ef00c9
:101b8c00f009200060088800000028008008880008
:101b9c00008920008040eb00014878000080fa00aa
:101bac00000006000000fa0021048000000820005c
:101bbc00008060000000e000090032001089200065
:101bcc00104078008040e80010892000014878001f
:101bdc000089200011c0b3000148780084e0a900fe
:101bec000080fa00000006000200fa00000f7800e6
:101bfc009e00780061088800008920008040eb007e
:101c0c00014878000080fa00000006000000fa008d
:101c1c00600880000080fa00000006000200fa0054
:101c2c00000f78009e0078003108880000892000a1
:101c3c008040eb00014878000080fa0000000600ac
:101c4c000000fa00300880000080fa000000060056
:101c5c000000fa00008920008040eb000148780069
:101c6c0011e1a8000080fa00000006000000fa0054
:101c7c0011e1a9000080fa00000006000200fa0041
:101c8c0000892000104f78001e4078000004e0000e
:101c9c0003003200008920008040eb0001487800ee
:101cac001e4078000080fa00000006000000fa00d8
:101cbc0010892000104078000080fb000080fa00a2
:101ccc00000006000000fa00108920008040eb00a4
:101cdc00014878000080fa00000006000000fa00bd
:101cec00c422ef00cc22ef00700120000016880007
:101cfc00f0bf2700401688006820ef006a20ef0034
:101d0c00c622ef00ce22ef000020200060198800d0
:101d1c00113a8000f00b200000816000600420006c
:101d2c0071052000237420008049780081497800d7
:101d3c008249780071368000f00f2e0080806000a0
:101d4c000030200001007000703688005136800091
:101d5c0000fe2f00008060002001b3005036880088
:101d6c00103a8000000178000260a000600420009e
:101d7c007105200023742000804978008149780087
:0c1d8c00824978000080fa000000060088
:020000040000fa
:101d98001608000002000000000000008e08000085
:101da8000200000000000000180800000200000007
:101db8000000000090080000020000000000000081
:101dc8006e08000020000000000000001a08000053
:101dd8000200000002000000ffff00001e080000d3
:101de80050000000000000000e080000080000007d
:101df8000200000000002c0042000000c03f00006c
:101e0800000800000e000000000000001c08000090
:0c1e1800020000000000000000000000bc
:020000040000fa
:101e24000000fa0000002300203a88004827ef0051
:101e34007027ef007227ef007427ef0012002000d4
:101e440080072000a1092000337420008049780015
:101e540081497800824978000001eb006004200089
:101e6400710520002374200080497800814978009e
:101e7400824978000080fa00000006000200fa009f
:101e8400000f78009e007800d1408800ffff3700e3
:101e94000000fa00e08620008007780060882000b7
:101ea400000188000080fa00000006000000fa002b
:101eb4008cff0700daff070007000700bafd0700e0
:101ec4001bfe0700d5fe07002dff070077fe070065
:101ed4000080fa00000006000000fa0021058000de
:101ee400f0ff28000080600000c0a00020058800ea
:101ef4000080fa00000006000000fa00ebff070073
:041f0400ffff3700a4
:020000040000fa
:020000040001f9
:0457f8009ff9000015
:020000040000fa
:020000040001f9
:0457fc007f3d0000ed
:00000001FF
